:100000000C9472000C9494000C9494000C94940042
:100010000C9494000C9494000C9494000C94940010
:100020000C9494000C9494000C9494000C94940000
:100030000C9494000C9494000C9494000C949400F0
:100040000C9494000C9494000C9494000C949400E0
:100050000C9494000C9494000C9494000C949400D0
:100060000C9494000C94BB070C9494000C94940092
:100070000C9494000C9494000C9494000C949400B0
:100080000C9494000C9494000C9494000C944B07E2
:100090000C9494000C9494000C9494000C94940090
:1000A0000C9494000C9494000C9494000C94940080
:1000B0000C9494000C9494000C9494000C94940070
:1000C0000C9494000C9494000C9494000C94940060
:1000D0000C9494000C9494000C9494000C94940050
:1000E0000C94940011241FBECFEFD1E2DEBFCDBF30
:1000F00000E00CBF13E0A0E0B2E0EAE8F9E100E0C4
:100100000BBF02C007900D92AA32B107D9F71BBEF0
:1001100019E0AAE2B3E001C01D92A432B107E1F7F1
:100120000E94A2080C94C30C0C940000CF93DF93A0
:10013000EC01882777FD8095982F20E034E244EF8A
:1001400050E00E945D09AB01BC01032E3AE07695B8
:100150006795579547953A95D1F7302D80E090E017
:10016000A1E0B0E0841B950BA60BB70BC330D10503
:1001700011F1C430D1052CF4C130D10509F050C0C3
:1001800008C0C430D10549F1C530D10509F048C0D7
:1001900036C010928000E1E8F0E0108220812560F6
:1001A0002083EFE6F0E0208121602083909385009A
:1001B0008093840035C010929000E1E9F0E0108255
:1001C000208125602083E1E7F0E020812160208309
:1001D000909395008093940023C01092A000E1EAD0
:1001E000F0E01082208125602083E2E7F0E02081AA
:1001F000216020839093A5008093A40011C01092E9
:100200002001E1E2F1E01082208125602083E3E714
:10021000F0E02081216020839093250180932401C8
:10022000DF91CF91089580E180934A0582E1809328
:100230004B0510924C0584E080934D059DE490930E
:100240004E0591E590934F0594E59093500590935A
:1002500051058093520582E0809353051092540516
:100260008CE3809355051092560586E080935705E0
:1002700081E48093580582E48093590583E4809358
:100280005A0584E480935B0585E480935C05809344
:100290005D05089580E380934A0583E180934B05D3
:1002A00010924C0588E080934D0596E790934E059B
:1002B00021E620934F058CE68093500555E6509338
:1002C000510534E73093520532E7309353054FE63A
:1002D000409354056EE66093550568E660935605B5
:1002E00050935705809358058093590540935A05BC
:1002F00030935B0520935C0590935D0589E68093C0
:100300005E050895FC0180EE808311820895DC0172
:10031000CB0180302BE4920720E0A20720E0B20757
:1003200041F181302BE4920720E0A20720E0B207E0
:1003300048F4803825E2920720E0A20720E0B207C7
:1003400049F511C0803026E9920720E0A20720E09D
:10035000B207A9F0803022EC920721E0A20720E04A
:10036000B207C1F412C087E68093C4001092C500A2
:10037000089583E38093C4001092C500089589E135
:100380008093C4001092C500089588E08093C40053
:100390001092C5000895E1ECF0E0208128692083E7
:1003A000E2ECF0E02081266020830E94870108951E
:1003B000E0ECF0E0908195FFFDCF8093C6000895BA
:1003C000E0ECF0E0908195FFFDCF8093C6000895AA
:1003D000CF93DF93EC018881882331F021960E942E
:1003E000D80189918823D9F7DF91CF910895CF93D0
:1003F000DF93EC018881882331F021960E94D80197
:1004000089918823D9F7DF91CF9108958091C60013
:100410000895CF93DF93C0913E03D0913F030E9494
:100420000602CA52DA4F888380913E0390913F03BF
:10043000019690933F0380933E0321E08030920722
:1004400021F410923F0310923E03DF91CF91089563
:10045000E6EDF5E086ED96E01192E817F907E1F791
:1004600010923F0310923E030895DC01CB018030CF
:100470002BE4920720E0A20720E0B20741F181308F
:100480002BE4920720E0A20720E0B20748F480386E
:1004900025E2920720E0A20720E0B20749F511C04B
:1004A000803026E9920720E0A20720E0B207A9F0F9
:1004B000803022EC920721E0A20720E0B207C1F4CD
:1004C00012C087E68093CC001092CD00089583E39C
:1004D0008093CC001092CD00089589E18093CC00E8
:1004E0001092CD00089588E08093CC001092CD004A
:1004F0000895E9ECF0E0208128692083EAECF0E03F
:100500002081266020830E9435020895E8ECF0E007
:10051000908195FFFDCF8093CE000895CF93DF9318
:10052000EC018881882331F021960E94860289910E
:100530008823D9F7DF91CF9108958091CE00089557
:10054000CF93DF93C0913C03D0913D030E949D0265
:10055000C85BDC4F888380913C0390913D030196FA
:1005600090933D0380933C03883C910521F41092C5
:100570003D0310923C03DF91CF910895E8E4F3E04E
:1005800088E494E01192E817F907E1F710923D032F
:1005900010923C030895DC01CB0180302BE49207DC
:1005A00020E0A20720E0B20741F181302BE492075E
:1005B00020E0A20720E0B20748F4803825E2920745
:1005C00020E0A20720E0B20749F511C0803026E9FB
:1005D000920720E0A20720E0B207A9F0803022ECC9
:1005E000920721E0A20720E0B207C1F412C087E61B
:1005F0008093D4001092D500089583E38093D400B3
:100600001092D500089589E18093D4001092D5000E
:10061000089588E08093D4001092D5000895E1ED0C
:10062000F0E0208128692083E2EDF0E0208126605F
:1006300020830E94CB020895E0EDF0E0908195FFC9
:10064000FDCF8093D6000895CF93DF93EC0188818E
:10065000882331F021960E941C0389918823D9F7C1
:10066000DF91CF9108958091D6000895CF93DF93C5
:10067000C0913A03D0913B030E943303CC51D94F30
:10068000888380913A0390913B03019690933B03BA
:1006900080933A03883C910521F410923B03109219
:1006A0003A03DF91CF910895E4EEF6E084EE97E00F
:1006B0001192E817F907E1F710923B0310923A0301
:1006C0000895DC01CB0180302BE4920720E0A207E3
:1006D00020E0B20741F181302BE4920720E0A2072D
:1006E00020E0B20748F4803825E2920720E0A20714
:1006F00020E0B20749F511C0803026E9920720E0DA
:10070000A20720E0B207A9F0803022EC920721E096
:10071000A20720E0B207C1F412C087E6809334013B
:1007200010923501089583E38093340110923501CE
:10073000089589E18093340110923501089588E08D
:1007400080933401109235010895E1E3F1E02081B6
:1007500028692083E2E3F1E02081266020830E9463
:1007600061030895E0E3F1E0908195FFFDCF809370
:1007700036010895CF93DF93EC018881882331F00F
:1007800021960E94B20389918823D9F7DF91CF91F6
:100790000895809136010895CF93DF93C091380377
:1007A000D09139030E94C903C65BDB4F88838091D7
:1007B000380390913903019690933903809338035D
:1007C000883C910521F41092390310923803DF918F
:1007D000CF910895EAE4F4E08AE495E01192E817F5
:1007E000F907E1F710923903109238030895BC011C
:1007F00086ED95E00E94B90921E0009709F420E018
:10080000822F08950E94280280E092E00E94E80171
:100810008DE00E94D8018BE092E00E94E8010895EB
:100820000E9428028DE092E00E94E8018DE00E9483
:10083000D8018BE092E00E94E80108950E9428020E
:100840008AE192E00E94E8018DE00E94D8018BE0ED
:1008500092E00E94E80108950E94280286E292E058
:100860000E94E8018DE00E94D8018BE092E00E9496
:10087000E80108950E94280281E392E00E94E801C5
:100880008DE00E94D8018BE092E00E94E80108957B
:100890000E9428028DE392E00E94E80182E20E9419
:1008A000D8018AE492E00E94E80182E20E94D80125
:1008B0008CE20E94D8018EE492E00E94E8018DE073
:1008C0000E94D8018BE092E00E94E8010895EF9227
:1008D000FF920F931F93CF93DF93EC018B017A016B
:1008E0000E94280280E592E00E94E80182E20E94D4
:1008F000D801CE010E94E80182E20E94D8018CE278
:100900000E94D80182E20E94D801C8010E94E80139
:1009100082E20E94D8018CE20E94D80182E20E9409
:10092000D801C7010E94E80182E20E94D8018DE04F
:100930000E94D8018BE092E00E94E801DF91CF9104
:100940001F910F91FF90EF9008950E94280289E572
:1009500092E00E94E8018DE00E94D8018BE092E0D5
:100960000E94E80108950F931F93CF93DF93EC014A
:100970008B010E94280282E692E00E94E80182E256
:100980000E94D8018FE692E00E94E80182E20E9474
:10099000D8018CE20E94D80182E20E94D801CE01E7
:1009A0000E94E80182E20E94D8018CE20E94D801F4
:1009B00082E20E94D801C8010E94E80182E20E94FE
:1009C000D8018DE00E94D8018BE092E00E94E801FE
:1009D000DF91CF911F910F9108950E94280283E724
:1009E00092E00E94E8018DE00E94D8018BE092E045
:1009F0000E94E8010895CF92DF92EF92FF920F9349
:100A00001F9380912403909125038130910509F073
:100A10001DC11092250310922403109231031092ED
:100A200030038091340390913503009749F40E947C
:100A3000ED048EE390E0909311098093100906C1B4
:100A40008130910509F0F8C00E94280280E10E94DF
:100A5000E001E0910003F0910103DF010D9000201F
:100A6000E9F79D01215030402E1B3F0B309343038B
:100A700020934203E0912203F0912303DF010D90C4
:100A80000020E9F7AD01415050404E1B5F0B5093E1
:100A90000F0840930E08A091F302B091F402FD01FB
:100AA00001900020E9F73197CF018A1B9B0B9093AF
:100AB000470380934603A091E802B091E902FD014B
:100AC00001900020E9F73197EA1BFB0BF093E50753
:100AD000E093E407240F351F245F3F4F820F931FDD
:100AE000E80FF91FCF01A0E0B0E08093CC05909310
:100AF000CD05A093CE05B093CF05809320099093A8
:100B00002109A0932209B0932309CC24DD24760186
:100B10006894C7F860912009709121098091220999
:100B200090912309A70196010E947C0989019A01ED
:100B3000862F6093CB050093200910932109209301
:100B400022093093230910161106120613061CF40D
:100B500080688093CB058091CB050E94E001809155
:100B6000200990912109A0912209B091230918161A
:100B700019061A061B0674F2809143030E94E001D5
:100B8000809142030E94E001809100039091010353
:100B90000E94E80183E00E94E00182EC0E94E001F3
:100BA00080E00E94E0018CE30E94E00180910F0848
:100BB0000E94E00180910E080E94E00180912203D2
:100BC000909123030E94E801809147030E94E00175
:100BD000809146030E94E0018091F3029091F4021B
:100BE0000E94E8018091E5070E94E0018091E407FE
:100BF0000E94E0018091E8029091E9020E94E801E0
:100C00008AE10E94D801A0E1B9E0EEE7F2E083E0DA
:100C100001900D928150E1F782E090E090933503CE
:100C2000809334038FE996E8A1E081509040A04082
:100C3000E1F700C000000AC010923503109234039F
:100C400081E090E090933703809336031F910F91DA
:100C5000FF90EF90DF90CF900895CF92DF92EF92C8
:100C6000FF920F931F93CF93DF9380912603909170
:100C700027038130910509F0DCC010922703109200
:100C8000260310924103109240038091D005909169
:100C9000D105009741F40E94ED048EE390E090931B
:100CA0000508809304088091D0059091D10581308A
:100CB000910509F0B0C0C6E1D8E08AEFDE011D92CF
:100CC0008A95E9F700D00F9206EE17E0EDB7FEB770
:100CD0001283018380911603909117039483838379
:100CE0000E94ED09909349048093480400D00F922C
:100CF000EDB7FEB73196ADB7BEB71296DC93CE9383
:100D0000119781E892E0938382831583048386E8B8
:100D100092E0978386830E94ED09AA2797FDA0950C
:100D2000BA2F8093CC059093CD05A093CE05B093B8
:100D3000CF05EDB7FEB738960FB6F894FEBF0FBEDD
:100D4000EDBF80E30E94E0018091CC059091CD053C
:100D5000A091CE05B091CF050296A11DB11D809343
:100D6000200990932109A0932209B0932309CC2450
:100D7000DD2476016894C7F86091200970912109FB
:100D80008091220990912309A70196010E947C0974
:100D900089019A01862F6093CB0500932009109357
:100DA00021092093220930932309101611061206F7
:100DB00013061CF480688093CB058091CB050E94BC
:100DC000E0018091200990912109A0912209B09120
:100DD0002309181619061A061B0674F28091490495
:100DE0000E94E001809148040E94E00186E198E0C1
:100DF0000E94E8018EE992E00E94E8018AE10E94E7
:100E0000D801A4E0B8E0E0EAF2E088E001900D92B9
:100E10008150E1F70EC01092D1051092D0051092CA
:100E200027031092260381E090E09093D3058093EE
:100E3000D205DF91CF911F910F91FF90EF90DF903E
:100E4000CF9008950E94280288EA92E00E94E8016B
:100E50008DE00E94D8018BE092E00E94E8010895A5
:100E6000009719F40E94ED0408958130910531F442
:100E7000CB010E94E8018AE10E94D801089581EB2C
:100E800092E00E94E8018DE00E94D8018BE092E0A0
:100E90000E94E80108951F920F920FB60F9211243D
:100EA0002F933F934F935F938F939F9387EF92EC92
:100EB00090939500809394004091300350913103BA
:100EC0004F5F5F4F509331034093300320913203C3
:100ED000309133032F5F3F4F30933303209332031E
:100EE0008091400390914103019690934103809338
:100EF00040032230310581F42091C9053091CA05A3
:100F00002F5F3F4F3093CA052093C90521E030E0A1
:100F100030932903209328038230910579F480913E
:100F20001208909113080196909313088093120869
:100F300081E090E09093270380932603423051058F
:100F400079F48091140890911508019690931508F2
:100F50008093140881E090E090932503809324030C
:100F60009F918F915F914F913F912F910F900FBE65
:100F70000F901F9018951F920F920FB60F920BB6FD
:100F80000F9211242F933F934F935F936F937F930F
:100F90008F939F93AF93BF93EF93FF930E940902A8
:100FA000FF91EF91BF91AF919F918F917F916F9141
:100FB0005F914F913F912F910F900BBE0F900FBEFD
:100FC0000F901F901895AF92BF92CF92DF92EF9241
:100FD000FF920F931F93CF93DF93EC017B016A0184
:100FE000590180912803909129038130910509F0DE
:100FF0009EC010922903109228031092330310927E
:10100000320380911A0990911B09009759F40E94AC
:101010000204EAEDF6E0AEE7B2E083E00D90019263
:101020008150E1F780911A0990911B098130910557
:1010300059F40E941E04EAEDF6E0AEE7B2E083E068
:101040000D9001928150E1F780911A0990911B094E
:101050008230910571F4CE01B701A6010E946704A8
:10106000EAEDF6E0AEE7B2E083E00D900192815048
:10107000E1F780911A0990911B098330910559F489
:101080000E942C04EAEDF6E0AEE7B2E083E00D90BA
:1010900001928150E1F780911A0990911B098430E7
:1010A000910559F40E94A504EAEDF6E0AEE7B2E03E
:1010B00083E00D9001928150E1F780911A0990919F
:1010C0001B098530910541F40E9422078EE290E0D1
:1010D0009093DB068093DA0680911A0990911B09A0
:1010E0008630910569F4C501B8010E94B304AAEDE8
:1010F000B6E0EEE7F2E083E001900D928150E1F777
:1011000080911A0990911B098730910581F40E9402
:10111000280210921B0910921A0981E090E0909326
:101120004503809344031092290310922803DF9112
:10113000CF911F910F91FF90EF90DF90CF90BF90D4
:10114000AF90089560E076E980E090E00E94CB01E6
:1011500010929000E1E9F0E0108280818560808348
:10116000E1E7F0E080818160808387EF92EC9093EB
:1011700095008093940078940F2EF5EB8F2EF2E07B
:101180009F2EF02D0F2EFEEBEF2EF2E0FF2EF02D16
:101190000F2EFFEB6F2EF2E07F2EF02D0F2EF1EDD4
:1011A000AF2EF2E0BF2EF02DC6EDD5E00F2EFAEDFA
:1011B0002F2EF6E03F2EF02D4424552443940F2E7D
:1011C000F4E0CF2EF8E0DF2EF02D1092D305109230
:1011D000D20580914403909145030097A9F5C4017D
:1011E000B701A701930185010E94E3078091C9051A
:1011F0009091CA058A30910569F410921B091092EA
:101200001A0950922903409228031092CA0510929D
:10121000C905DBCFCE01B1010E94D3090097A9F225
:101220001092CA051092C90580911A0990911B0964
:10123000019690931B0980931A090E9428025092EC
:10124000290340922803C1CF809136039091370340
:101250000097D1F40E94FB04CE0160E179E00E9486
:10126000D309009709F4B1CF109215081092140811
:1012700080913403909135030196909335038093C8
:1012800034030E942802A1CF0E942D06CE01B60190
:101290000E94D309009709F498CF10921308109276
:1012A00012088091D0059091D10501969093D105B7
:1012B0008093D0050E94280288CF629FD001739F3F
:1012C000F001829FE00DF11D649FE00DF11D929FE2
:1012D000F00D839FF00D749FF00D659FF00D992721
:1012E000729FB00DE11DF91F639FB00DE11DF91F45
:1012F000BD01CF011124089597FB092E05260ED0BC
:1013000057FD04D014D00AD0001C38F450954095F5
:10131000309521953F4F4F4F5F4F0895F6F79095C9
:101320008095709561957F4F8F4F9F4F0895A1E2F3
:101330001A2EAA1BBB1BFD010DC0AA1FBB1FEE1F4F
:10134000FF1FA217B307E407F50720F0A21BB30B9A
:10135000E40BF50B661F771F881F991F1A9469F716
:1013600060957095809590959B01AC01BD01CF0172
:101370000895FB0155915523A9F0BF01DC014D9162
:1013800045174111E1F759F4CD010590002049F0CE
:101390004D9140154111C9F3FB014111EFCF81E09F
:1013A00090E001970895FB0151915523A9F0BF01E9
:1013B000DC014D9145174111E1F759F4CD01019040
:1013C000002049F04D9140154111C9F3FB01411135
:1013D000EFCF81E090E0019708950F931F93CF9393
:1013E000DF93CDB7DEB72E970FB6F894DEBF0FBEF2
:1013F000CDBF0E891F8986E08C831A8309838FEF06
:101400009FE79E838D83AE01465E5F4FCE010196BE
:10141000688D798D0E941C0AEF81F885E00FF11F1D
:1014200010822E960FB6F894DEBF0FBECDBFDF91AF
:10143000CF911F910F9108952F923F924F925F92FB
:101440006F927F928F929F92AF92BF92CF92DF92D4
:10145000EF92FF920F931F93CF93DF93CDB7DEB739
:101460002D970FB6F894DEBF0FBECDBF3C017D8730
:101470006C875A01FC0117821682838181FFC8C1E3
:101480002E010894411C511CF3019381EC85FD85CC
:1014900093FD859193FF8191FD87EC87882309F463
:1014A000B3C1853241F493FD859193FF8191FD870E
:1014B000EC87853229F490E0B3010E94390CE4CF27
:1014C000FF24EE2410E01032B0F48B3269F08C323D
:1014D00028F4803251F0833271F40BC08D3239F030
:1014E000803349F411602CC01260146029C0186068
:1014F00027C0106125C017FD2EC0282F20532A3089
:1015000098F416FF08C08F2D880FF82EFF0CFF0CE3
:10151000F80EF20E15C08E2D880FE82EEE0CEE0C94
:10152000E80EE20E10620CC08E3221F416FD6CC182
:10153000106406C08C3611F4106802C0883659F465
:10154000EC85FD8593FD859193FF8191FD87EC8767
:10155000882309F0B8CF982F9554933018F0905203
:10156000933038F424E030E0A20EB31E3FE3398319
:101570000FC0833631F0833781F0833509F05AC0CC
:1015800022C0F5018081898322E030E0A20EB31EE3
:1015900021E0C22ED12C420114C092E0292E312C20
:1015A0002A0C3B1CF5018080918016FF03C06F2D33
:1015B00070E002C06FEF7FEFC4010E942E0C6C013F
:1015C00051011F7715C082E0282E312C2A0C3B1CBC
:1015D000F5018080918016FF03C06F2D70E002C07E
:1015E0006FEF7FEFC4010E94230C6C011068510162
:1015F00013FD1CC006C080E290E0B3010E94390CCC
:10160000EA948E2D90E0C816D906A8F30FC0F40115
:1016100017FD859117FF81914F0190E0B3010E9462
:10162000390CE110EA940894C108D108C114D1041E
:1016300071F7E7C0843611F0893651F5F50117FFCF
:1016400007C080819181A281B38124E030E008C08D
:1016500080819181AA2797FDA095BA2F22E030E0E2
:10166000A20EB31E012F0F76B7FF08C0B095A0954C
:10167000909581959F4FAF4FBF4F0068BC01CD0142
:10168000A2012AE030E00E94650CD82ED4183FC099
:10169000853721F41F7E2AE030E020C0197F8F3685
:1016A000A9F0803720F4883509F0AEC00BC0803730
:1016B00021F0883709F0A8C001C0106114FF09C0EB
:1016C000146007C014FF08C0166006C028E030E0B0
:1016D00005C020E130E002C020E132E0F50117FF53
:1016E00007C0608171818281938144E050E006C02F
:1016F0006081718180E090E042E050E0A40EB51E70
:10170000A2010E94650CD82ED418012F0F7706FF76
:1017100009C00E7FDF1430F404FF06C002FD04C0D0
:101720000F7E02C01D2D01C01F2D802F90E004FFF1
:101730000CC0FE01ED0DF11D2081203311F4097E56
:1017400009C002FF06C01E5F05C086789070009732
:1017500009F01F5F802E992403FD12C000FF0DC009
:10176000FD2C1E1550F4FE0CF11A1E2D06C080E251
:1017700090E0B3010E94390C1F5F1E15C0F304C036
:101780001E1510F4E11A01C0EE2484FE0FC080E3A0
:1017900090E0B3010E94390C82FE1FC081FE03C09D
:1017A00088E590E010C088E790E00DC0C40186781D
:1017B0009070009791F081FC02C080E201C08BE242
:1017C00007FD8DE290E0B3010E94390C06C080E372
:1017D00090E0B3010E94390CFA94DF14C0F3DA945C
:1017E000F201ED0DF11D808190E0B3010E94390CF2
:1017F000DD20A9F706C080E290E0B3010E94390C19
:10180000EA94EE20C1F740CEF3018681978102C0B1
:101810008FEF9FEF2D960FB6F894DEBF0FBECDBFB2
:10182000DF91CF911F910F91FF90EF90DF90CF90BC
:10183000BF90AF909F908F907F906F905F904F90F0
:101840003F902F900895FC01059061507040011069
:10185000D8F7809590958E0F9F1F0895FC016150D9
:10186000704001900110D8F7809590958E0F9F1FC2
:1018700008950F931F93CF93DF938C01EB018B811E
:1018800081FF1BC082FF0DC02E813F818C819D8115
:101890002817390764F4E881F9810193F983E88313
:1018A00006C0E885F985802F1995009731F48E815F
:1018B0009F8101969F838E8302C00FEF1FEFC801A7
:1018C000DF91CF911F910F910895FA01AA27283037
:1018D00051F1203181F1E8946F936E7F6E5F7F4FFD
:1018E0008F4F9F4FAF4FB1E03ED0B4E03CD0670F79
:1018F000781F891F9A1FA11D680F791F8A1F911DCC
:10190000A11D6A0F711D811D911DA11D20D009F41B
:1019100068943F912AE0269F11243019305D31935D
:10192000DEF6CF010895462F4770405D4193B3E046
:101930000FD0C9F7F6CF462F4F70405D4A3318F0ED
:10194000495D31FD4052419302D0A9F7EACFB4E09E
:10195000A6959795879577956795BA95C9F7009756
:101960006105710508959B01AC010A2E06945795F7
:10197000479537952795BA95C9F7620F731F841F4E
:0A198000951FA01D0895F894FFCFF5
:10198A0041542B43495053485554000A0041542BA3
:10199A004349504D4F44453D310041542B43495032
:1019AA004D55583D300041542B43474154543D3125
:1019BA000041542B48545450494E49540041542B29
:1019CA0048545450504152413D004349440031006B
:1019DA0041542B435354543D0041542B43494943EA
:1019EA00520041542B43495053544152543D0054E0
:1019FA0043500041542B43495053454E44004F4BEA
:101A0A00002573257300436F756E7465722424254F
:101A1A00255E262626262A2A265E252423000D0050
:101A2A0053454E44204F4B0041542B434946535291
:101A3A00002B2B2B00696E7465726E657400006D45
:101A4A0031312E636C6F75646D7174742E636F6DB2
:101A5A00003139373831000400010067786B534A86
:101A6A0036572D3471646400DB02667969787767CA
:101A7A00717700EA023C00C2034D51497364700059
:101A8A00F90273616D62756C5F3200020373616DF6
:101A9A0062756C5F31000D03425552554B454E47F6
:0A1AAA0045001803010001000100CF
:00000001FF
